{"abi":[{"type":"constructor","inputs":[],"stateMutability":"nonpayable"},{"type":"receive","stateMutability":"payable"},{"type":"function","name":"admins","inputs":[{"name":"","type":"address","internalType":"address"}],"outputs":[{"name":"","type":"bool","internalType":"bool"}],"stateMutability":"view"},{"type":"function","name":"allowance","inputs":[{"name":"owner","type":"address","internalType":"address"},{"name":"spender","type":"address","internalType":"address"}],"outputs":[{"name":"","type":"uint256","internalType":"uint256"}],"stateMutability":"view"},{"type":"function","name":"approve","inputs":[{"name":"spender","type":"address","internalType":"address"},{"name":"value","type":"uint256","internalType":"uint256"}],"outputs":[{"name":"","type":"bool","internalType":"bool"}],"stateMutability":"nonpayable"},{"type":"function","name":"balanceOf","inputs":[{"name":"account","type":"address","internalType":"address"}],"outputs":[{"name":"","type":"uint256","internalType":"uint256"}],"stateMutability":"view"},{"type":"function","name":"burnMyTokens","inputs":[{"name":"amount","type":"uint256","internalType":"uint256"}],"outputs":[],"stateMutability":"nonpayable"},{"type":"function","name":"burnTokens","inputs":[{"name":"from","type":"address","internalType":"address"},{"name":"amount","type":"uint256","internalType":"uint256"}],"outputs":[],"stateMutability":"nonpayable"},{"type":"function","name":"calculateTax","inputs":[{"name":"amount","type":"uint256","internalType":"uint256"}],"outputs":[{"name":"","type":"uint256","internalType":"uint256"}],"stateMutability":"view"},{"type":"function","name":"decimals","inputs":[],"outputs":[{"name":"","type":"uint8","internalType":"uint8"}],"stateMutability":"pure"},{"type":"function","name":"emergencyPause","inputs":[],"outputs":[],"stateMutability":"nonpayable"},{"type":"function","name":"emergencyUnpause","inputs":[],"outputs":[],"stateMutability":"nonpayable"},{"type":"function","name":"getAllWhitelisted","inputs":[],"outputs":[{"name":"","type":"address[]","internalType":"address[]"}],"stateMutability":"view"},{"type":"function","name":"getBalanceInINR","inputs":[{"name":"account","type":"address","internalType":"address"}],"outputs":[{"name":"","type":"string","internalType":"string"}],"stateMutability":"view"},{"type":"function","name":"getTaxThresholdInINR","inputs":[],"outputs":[{"name":"","type":"string","internalType":"string"}],"stateMutability":"view"},{"type":"function","name":"getTotalReserveInINR","inputs":[],"outputs":[{"name":"","type":"string","internalType":"string"}],"stateMutability":"view"},{"type":"function","name":"getTotalSupplyInINR","inputs":[],"outputs":[{"name":"","type":"string","internalType":"string"}],"stateMutability":"view"},{"type":"function","name":"getUserReserveInINR","inputs":[{"name":"account","type":"address","internalType":"address"}],"outputs":[{"name":"","type":"string","internalType":"string"}],"stateMutability":"view"},{"type":"function","name":"isPaymentProcessed","inputs":[{"name":"paymentId","type":"string","internalType":"string"}],"outputs":[{"name":"","type":"bool","internalType":"bool"}],"stateMutability":"view"},{"type":"function","name":"maxTransferAmount","inputs":[],"outputs":[{"name":"","type":"uint256","internalType":"uint256"}],"stateMutability":"view"},{"type":"function","name":"minTransferAmount","inputs":[],"outputs":[{"name":"","type":"uint256","internalType":"uint256"}],"stateMutability":"view"},{"type":"function","name":"mintTokens","inputs":[{"name":"to","type":"address","internalType":"address"},{"name":"amount","type":"uint256","internalType":"uint256"},{"name":"paymentId","type":"string","internalType":"string"}],"outputs":[],"stateMutability":"nonpayable"},{"type":"function","name":"name","inputs":[],"outputs":[{"name":"","type":"string","internalType":"string"}],"stateMutability":"view"},{"type":"function","name":"owner","inputs":[],"outputs":[{"name":"","type":"address","internalType":"address"}],"stateMutability":"view"},{"type":"function","name":"paused","inputs":[],"outputs":[{"name":"","type":"bool","internalType":"bool"}],"stateMutability":"view"},{"type":"function","name":"processedPayments","inputs":[{"name":"","type":"string","internalType":"string"}],"outputs":[{"name":"","type":"bool","internalType":"bool"}],"stateMutability":"view"},{"type":"function","name":"removeFromWhitelist","inputs":[{"name":"account","type":"address","internalType":"address"}],"outputs":[],"stateMutability":"nonpayable"},{"type":"function","name":"renounceOwnership","inputs":[],"outputs":[],"stateMutability":"nonpayable"},{"type":"function","name":"symbol","inputs":[],"outputs":[{"name":"","type":"string","internalType":"string"}],"stateMutability":"view"},{"type":"function","name":"taxConfig","inputs":[],"outputs":[{"name":"taxRate","type":"uint256","internalType":"uint256"},{"name":"taxWallet","type":"address","internalType":"address"},{"name":"taxEnabled","type":"bool","internalType":"bool"},{"name":"taxThreshold","type":"uint256","internalType":"uint256"}],"stateMutability":"view"},{"type":"function","name":"totalReserve","inputs":[],"outputs":[{"name":"","type":"uint256","internalType":"uint256"}],"stateMutability":"view"},{"type":"function","name":"totalSupply","inputs":[],"outputs":[{"name":"","type":"uint256","internalType":"uint256"}],"stateMutability":"view"},{"type":"function","name":"transfer","inputs":[{"name":"to","type":"address","internalType":"address"},{"name":"amount","type":"uint256","internalType":"uint256"}],"outputs":[{"name":"","type":"bool","internalType":"bool"}],"stateMutability":"nonpayable"},{"type":"function","name":"transferFrom","inputs":[{"name":"from","type":"address","internalType":"address"},{"name":"to","type":"address","internalType":"address"},{"name":"amount","type":"uint256","internalType":"uint256"}],"outputs":[{"name":"","type":"bool","internalType":"bool"}],"stateMutability":"nonpayable"},{"type":"function","name":"transferOwnership","inputs":[{"name":"newOwner","type":"address","internalType":"address"}],"outputs":[],"stateMutability":"nonpayable"},{"type":"function","name":"updateAdmin","inputs":[{"name":"account","type":"address","internalType":"address"},{"name":"isAdmin","type":"bool","internalType":"bool"}],"outputs":[],"stateMutability":"nonpayable"},{"type":"function","name":"updateTaxConfig","inputs":[{"name":"rate","type":"uint256","internalType":"uint256"},{"name":"wallet","type":"address","internalType":"address"},{"name":"enabled","type":"bool","internalType":"bool"},{"name":"threshold","type":"uint256","internalType":"uint256"}],"outputs":[],"stateMutability":"nonpayable"},{"type":"function","name":"updateTransferLimits","inputs":[{"name":"min","type":"uint256","internalType":"uint256"},{"name":"max","type":"uint256","internalType":"uint256"}],"outputs":[],"stateMutability":"nonpayable"},{"type":"function","name":"updateWhitelist","inputs":[{"name":"account","type":"address","internalType":"address"},{"name":"canMint","type":"bool","internalType":"bool"},{"name":"canBurn","type":"bool","internalType":"bool"}],"outputs":[],"stateMutability":"nonpayable"},{"type":"function","name":"userReserves","inputs":[{"name":"","type":"address","internalType":"address"}],"outputs":[{"name":"","type":"uint256","internalType":"uint256"}],"stateMutability":"view"},{"type":"function","name":"verifyPeg","inputs":[],"outputs":[{"name":"","type":"bool","internalType":"bool"}],"stateMutability":"view"},{"type":"function","name":"whitelist","inputs":[{"name":"","type":"address","internalType":"address"}],"outputs":[{"name":"canMint","type":"bool","internalType":"bool"},{"name":"canBurn","type":"bool","internalType":"bool"}],"stateMutability":"view"},{"type":"function","name":"whitelistedAddresses","inputs":[{"name":"","type":"uint256","internalType":"uint256"}],"outputs":[{"name":"","type":"address","internalType":"address"}],"stateMutability":"view"},{"type":"function","name":"wouldBeTaxed","inputs":[{"name":"amount","type":"uint256","internalType":"uint256"}],"outputs":[{"name":"","type":"bool","internalType":"bool"}],"stateMutability":"view"},{"type":"event","name":"AdminUpdated","inputs":[{"name":"admin","type":"address","indexed":true,"internalType":"address"},{"name":"isAdmin","type":"bool","indexed":false,"internalType":"bool"}],"anonymous":false},{"type":"event","name":"Approval","inputs":[{"name":"owner","type":"address","indexed":true,"internalType":"address"},{"name":"spender","type":"address","indexed":true,"internalType":"address"},{"name":"value","type":"uint256","indexed":false,"internalType":"uint256"}],"anonymous":false},{"type":"event","name":"OwnershipTransferred","inputs":[{"name":"previousOwner","type":"address","indexed":true,"internalType":"address"},{"name":"newOwner","type":"address","indexed":true,"internalType":"address"}],"anonymous":false},{"type":"event","name":"Paused","inputs":[{"name":"account","type":"address","indexed":false,"internalType":"address"}],"anonymous":false},{"type":"event","name":"PaymentProcessed","inputs":[{"name":"paymentId","type":"string","indexed":false,"internalType":"string"},{"name":"user","type":"address","indexed":true,"internalType":"address"},{"name":"amount","type":"uint256","indexed":false,"internalType":"uint256"}],"anonymous":false},{"type":"event","name":"ReserveUpdated","inputs":[{"name":"newReserve","type":"uint256","indexed":false,"internalType":"uint256"}],"anonymous":false},{"type":"event","name":"TaxCollected","inputs":[{"name":"from","type":"address","indexed":true,"internalType":"address"},{"name":"amount","type":"uint256","indexed":false,"internalType":"uint256"},{"name":"taxRate","type":"uint256","indexed":false,"internalType":"uint256"}],"anonymous":false},{"type":"event","name":"TokensBurned","inputs":[{"name":"from","type":"address","indexed":true,"internalType":"address"},{"name":"amount","type":"uint256","indexed":false,"internalType":"uint256"}],"anonymous":false},{"type":"event","name":"TokensMinted","inputs":[{"name":"to","type":"address","indexed":true,"internalType":"address"},{"name":"amount","type":"uint256","indexed":false,"internalType":"uint256"},{"name":"paymentId","type":"string","indexed":false,"internalType":"string"}],"anonymous":false},{"type":"event","name":"Transfer","inputs":[{"name":"from","type":"address","indexed":true,"internalType":"address"},{"name":"to","type":"address","indexed":true,"internalType":"address"},{"name":"value","type":"uint256","indexed":false,"internalType":"uint256"}],"anonymous":false},{"type":"event","name":"Unpaused","inputs":[{"name":"account","type":"address","indexed":false,"internalType":"address"}],"anonymous":false},{"type":"event","name":"WhitelistUpdated","inputs":[{"name":"account","type":"address","indexed":true,"internalType":"address"},{"name":"canMint","type":"bool","indexed":false,"internalType":"bool"},{"name":"canBurn","type":"bool","indexed":false,"internalType":"bool"}],"anonymous":false},{"type":"error","name":"ERC20InsufficientAllowance","inputs":[{"name":"spender","type":"address","internalType":"address"},{"name":"allowance","type":"uint256","internalType":"uint256"},{"name":"needed","type":"uint256","internalType":"uint256"}]},{"type":"error","name":"ERC20InsufficientBalance","inputs":[{"name":"sender","type":"address","internalType":"address"},{"name":"balance","type":"uint256","internalType":"uint256"},{"name":"needed","type":"uint256","internalType":"uint256"}]},{"type":"error","name":"ERC20InvalidApprover","inputs":[{"name":"approver","type":"address","internalType":"address"}]},{"type":"error","name":"ERC20InvalidReceiver","inputs":[{"name":"receiver","type":"address","internalType":"address"}]},{"type":"error","name":"ERC20InvalidSender","inputs":[{"name":"sender","type":"address","internalType":"address"}]},{"type":"error","name":"ERC20InvalidSpender","inputs":[{"name":"spender","type":"address","internalType":"address"}]},{"type":"error","name":"EnforcedPause","inputs":[]},{"type":"error","name":"ExpectedPause","inputs":[]},{"type":"error","name":"OwnableInvalidOwner","inputs":[{"name":"owner","type":"address","internalType":"address"}]},{"type":"error","name":"OwnableUnauthorizedAccount","inputs":[{"name":"account","type":"address","internalType":"address"}]}],"bytecode":{"object":"0x6080604052620186a0600e556001600f5534801561001b575f5ffd5b50336040518060400160405280601281526020017f496e6469616e20527570656520546f6b656e00000000000000000000000000008152506040518060400160405280600481526020017f494e52540000000000000000000000000000000000000000000000000000000081525081600390816100989190610637565b5080600490816100a89190610637565b5050505f73ffffffffffffffffffffffffffffffffffffffff168173ffffffffffffffffffffffffffffffffffffffff160361011b575f6040517f1e4fbdf70000000000000000000000000000000000000000000000000000000081526004016101129190610745565b60405180910390fd5b61012a8161033760201b60201c565b5060405180604001604052806001151581526020016001151581525060085f3373ffffffffffffffffffffffffffffffffffffffff1673ffffffffffffffffffffffffffffffffffffffff1681526020019081526020015f205f820151815f015f6101000a81548160ff0219169083151502179055506020820151815f0160016101000a81548160ff021916908315150217905550905050600933908060018154018082558091505060019003905f5260205f20015f9091909190916101000a81548173ffffffffffffffffffffffffffffffffffffffff021916908373ffffffffffffffffffffffffffffffffffffffff160217905550600160105f3373ffffffffffffffffffffffffffffffffffffffff1673ffffffffffffffffffffffffffffffffffffffff1681526020019081526020015f205f6101000a81548160ff0219169083151502179055506040518060800160405280606481526020013373ffffffffffffffffffffffffffffffffffffffff1681526020016001151581526020016207a120815250600b5f820151815f01556020820151816001015f6101000a81548173ffffffffffffffffffffffffffffffffffffffff021916908373ffffffffffffffffffffffffffffffffffffffff16021790555060408201518160010160146101000a81548160ff0219169083151502179055506060820151816002015590505061075e565b5f60055f9054906101000a900473ffffffffffffffffffffffffffffffffffffffff1690508160055f6101000a81548173ffffffffffffffffffffffffffffffffffffffff021916908373ffffffffffffffffffffffffffffffffffffffff1602179055508173ffffffffffffffffffffffffffffffffffffffff168173ffffffffffffffffffffffffffffffffffffffff167f8be0079c531659141344cd1fd0a4f28419497f9722a3daafe3b4186f6b6457e060405160405180910390a35050565b5f81519050919050565b7f4e487b71000000000000000000000000000000000000000000000000000000005f52604160045260245ffd5b7f4e487b71000000000000000000000000000000000000000000000000000000005f52602260045260245ffd5b5f600282049050600182168061047557607f821691505b60208210810361048857610487610431565b5b50919050565b5f819050815f5260205f209050919050565b5f6020601f8301049050919050565b5f82821b905092915050565b5f600883026104ea7fffffffffffffffffffffffffffffffffffffffffffffffffffffffffffffffff826104af565b6104f486836104af565b95508019841693508086168417925050509392505050565b5f819050919050565b5f819050919050565b5f61053861053361052e8461050c565b610515565b61050c565b9050919050565b5f819050919050565b6105518361051e565b61056561055d8261053f565b8484546104bb565b825550505050565b5f5f905090565b61057c61056d565b610587818484610548565b505050565b5b818110156105aa5761059f5f82610574565b60018101905061058d565b5050565b601f8211156105ef576105c08161048e565b6105c9846104a0565b810160208510156105d8578190505b6105ec6105e4856104a0565b83018261058c565b50505b505050565b5f82821c905092915050565b5f61060f5f19846008026105f4565b1980831691505092915050565b5f6106278383610600565b9150826002028217905092915050565b610640826103fa565b67ffffffffffffffff81111561065957610658610404565b5b610663825461045e565b61066e8282856105ae565b5f60209050601f83116001811461069f575f841561068d578287015190505b610697858261061c565b8655506106fe565b601f1984166106ad8661048e565b5f5b828110156106d4578489015182556001820191506020850194506020810190506106af565b868310156106f157848901516106ed601f891682610600565b8355505b6001600288020188555050505b505050505050565b5f73ffffffffffffffffffffffffffffffffffffffff82169050919050565b5f61072f82610706565b9050919050565b61073f81610725565b82525050565b5f6020820190506107585f830184610736565b92915050565b614a7d8061076b5f395ff3fe608060405260043610610254575f3560e01c80635c975abb116101385780639b19251a116100b5578063c46f3f4611610079578063c46f3f4614610923578063c57da0291461095f578063cfbc3cfd1461098c578063dd62ed3e146109b4578063e67524a3146109f0578063f2fde38b14610a1857610294565b80639b19251a146108085780639b931abf14610845578063a9059cbb14610881578063a9e75723146108bd578063ba4e5c49146108e757610294565b806370a08231116100fc57806370a082311461073a578063715018a6146107765780638ab1d6811461078c5780638da5cb5b146107b457806395d89b41146107de57610294565b80635c975abb1461066c578063670a6fd9146106965780636764765d146106be57806368841431146106e65780636d28b75a1461071057610294565b8063313ce567116101d157806347dfca281161019557806347dfca2814610562578063483a93101461059e5780634a4e3bd5146105da5780634b85ca37146105f05780634c68df671461062c57806351858e271461065657610294565b8063313ce5671461048057806340dfb1dc146104aa5780634245b7af146104d2578063429b62e5146104fc57806343aeae451461053857610294565b8063149f2e8811610218578063149f2e881461038c57806318160ddd146103c857806323633468146103f257806323b872dd1461041c57806327e2ced11461045857610294565b806306fdde0314610298578063095ea7b3146102c25780630d08e181146102fe5780630d1118ce1461033a57806312f059731461036257610294565b36610294576040517f08c379a000000000000000000000000000000000000000000000000000000000815260040161028b90613570565b60405180910390fd5b5f5ffd5b3480156102a3575f5ffd5b506102ac610a40565b6040516102b991906135ee565b60405180910390f35b3480156102cd575f5ffd5b506102e860048036038101906102e391906136ac565b610ad0565b6040516102f59190613704565b60405180910390f35b348015610309575f5ffd5b50610324600480360381019061031f919061371d565b610af2565b6040516103319190613757565b60405180910390f35b348015610345575f5ffd5b50610360600480360381019061035b91906136ac565b610b07565b005b34801561036d575f5ffd5b50610376610e39565b60405161038391906135ee565b60405180910390f35b348015610397575f5ffd5b506103b260048036038101906103ad919061389c565b610e6d565b6040516103bf9190613704565b60405180910390f35b3480156103d3575f5ffd5b506103dc610ea0565b6040516103e99190613757565b60405180910390f35b3480156103fd575f5ffd5b50610406610ea9565b6040516104139190613704565b60405180910390f35b348015610427575f5ffd5b50610442600480360381019061043d91906138e3565b610ede565b60405161044f9190613704565b60405180910390f35b348015610463575f5ffd5b5061047e6004803603810190610479919061395d565b610f14565b005b34801561048b575f5ffd5b50610494611149565b6040516104a191906139dc565b60405180910390f35b3480156104b5575f5ffd5b506104d060048036038101906104cb91906139f5565b611151565b005b3480156104dd575f5ffd5b506104e6611478565b6040516104f39190613afc565b60405180910390f35b348015610507575f5ffd5b50610522600480360381019061051d919061371d565b611503565b60405161052f9190613704565b60405180910390f35b348015610543575f5ffd5b5061054c611520565b60405161055991906135ee565b60405180910390f35b34801561056d575f5ffd5b506105886004803603810190610583919061371d565b611556565b60405161059591906135ee565b60405180910390f35b3480156105a9575f5ffd5b506105c460048036038101906105bf9190613b1c565b6115e7565b6040516105d19190613757565b60405180910390f35b3480156105e5575f5ffd5b506105ee611622565b005b3480156105fb575f5ffd5b5061061660048036038101906106119190613b1c565b6116f2565b6040516106239190613704565b60405180910390f35b348015610637575f5ffd5b5061064061172d565b60405161064d9190613757565b60405180910390f35b348015610661575f5ffd5b5061066a611733565b005b348015610677575f5ffd5b50610680611803565b60405161068d9190613704565b60405180910390f35b3480156106a1575f5ffd5b506106bc60048036038101906106b79190613b47565b611819565b005b3480156106c9575f5ffd5b506106e460048036038101906106df9190613b1c565b611935565b005b3480156106f1575f5ffd5b506106fa611b6c565b6040516107079190613757565b60405180910390f35b34801561071b575f5ffd5b50610724611b72565b60405161073191906135ee565b60405180910390f35b348015610745575f5ffd5b50610760600480360381019061075b919061371d565b611bc6565b60405161076d9190613757565b60405180910390f35b348015610781575f5ffd5b5061078a611c0b565b005b348015610797575f5ffd5b506107b260048036038101906107ad919061371d565b611c1e565b005b3480156107bf575f5ffd5b506107c8611e0a565b6040516107d59190613b94565b60405180910390f35b3480156107e9575f5ffd5b506107f2611e32565b6040516107ff91906135ee565b60405180910390f35b348015610813575f5ffd5b5061082e6004803603810190610829919061371d565b611ec2565b60405161083c929190613bad565b60405180910390f35b348015610850575f5ffd5b5061086b6004803603810190610866919061389c565b611efa565b6040516108789190613704565b60405180910390f35b34801561088c575f5ffd5b506108a760048036038101906108a291906136ac565b611f2f565b6040516108b49190613704565b60405180910390f35b3480156108c8575f5ffd5b506108d1611f4d565b6040516108de9190613757565b60405180910390f35b3480156108f2575f5ffd5b5061090d60048036038101906109089190613b1c565b611f53565b60405161091a9190613b94565b60405180910390f35b34801561092e575f5ffd5b506109496004803603810190610944919061371d565b611f8e565b60405161095691906135ee565b60405180910390f35b34801561096a575f5ffd5b50610973611fcc565b6040516109839493929190613bd4565b60405180910390f35b348015610997575f5ffd5b506109b260048036038101906109ad9190613c17565b612015565b005b3480156109bf575f5ffd5b506109da60048036038101906109d59190613c55565b612173565b6040516109e79190613757565b60405180910390f35b3480156109fb575f5ffd5b50610a166004803603810190610a119190613c93565b6121f5565b005b348015610a23575f5ffd5b50610a3e6004803603810190610a39919061371d565b61254f565b005b606060038054610a4f90613d2c565b80601f0160208091040260200160405190810160405280929190818152602001828054610a7b90613d2c565b8015610ac65780601f10610a9d57610100808354040283529160200191610ac6565b820191905f5260205f20905b815481529060010190602001808311610aa957829003601f168201915b5050505050905090565b5f5f610ada6125d3565b9050610ae78185856125da565b600191505092915050565b6007602052805f5260405f205f915090505481565b60085f3373ffffffffffffffffffffffffffffffffffffffff1673ffffffffffffffffffffffffffffffffffffffff1681526020019081526020015f205f0160019054906101000a900460ff16610b93576040517f08c379a0000000000000000000000000000000000000000000000000000000008152600401610b8a90613da6565b60405180910390fd5b610b9b6125ec565b5f73ffffffffffffffffffffffffffffffffffffffff168273ffffffffffffffffffffffffffffffffffffffff1603610c09576040517f08c379a0000000000000000000000000000000000000000000000000000000008152600401610c0090613e0e565b60405180910390fd5b5f8111610c4b576040517f08c379a0000000000000000000000000000000000000000000000000000000008152600401610c4290613e76565b60405180910390fd5b80610c5583611bc6565b1015610c96576040517f08c379a0000000000000000000000000000000000000000000000000000000008152600401610c8d90613ede565b60405180910390fd5b5f610c9f611149565b600a610cab9190614058565b82610cb691906140a2565b90508060075f8573ffffffffffffffffffffffffffffffffffffffff1673ffffffffffffffffffffffffffffffffffffffff1681526020019081526020015f20541015610d38576040517f08c379a0000000000000000000000000000000000000000000000000000000008152600401610d2f9061412d565b60405180910390fd5b8060075f8573ffffffffffffffffffffffffffffffffffffffff1673ffffffffffffffffffffffffffffffffffffffff1681526020019081526020015f205f828254610d84919061414b565b925050819055508060065f828254610d9c919061414b565b92505081905550610dad838361262d565b8273ffffffffffffffffffffffffffffffffffffffff167ffd38818f5291bf0bb3a2a48aadc06ba8757865d1dabd804585338aab3009dcb683604051610df39190613757565b60405180910390a27f85e15aee91823036f338b40b55f10eea0356cfb9da506963651ac73e503f47db600654604051610e2c9190613757565b60405180910390a1505050565b6060610e49600b600201546126ac565b604051602001610e599190614202565b604051602081830303815290604052905090565b5f600a82604051610e7e9190614223565b90815260200160405180910390205f9054906101000a900460ff169050919050565b5f600254905090565b5f5f610eb3611149565b600a610ebf9190614058565b610ec7610ea0565b610ed191906140a2565b9050600654811491505090565b5f610ee76125ec565b5f610ef06125d3565b9050610efd8582856128c5565b610f08858585612958565b60019150509392505050565b60105f3373ffffffffffffffffffffffffffffffffffffffff1673ffffffffffffffffffffffffffffffffffffffff1681526020019081526020015f205f9054906101000a900460ff1680610f9b5750610f6c611e0a565b73ffffffffffffffffffffffffffffffffffffffff163373ffffffffffffffffffffffffffffffffffffffff16145b610fda576040517f08c379a0000000000000000000000000000000000000000000000000000000008152600401610fd190614283565b60405180910390fd5b6101f484111561101f576040517f08c379a0000000000000000000000000000000000000000000000000000000008152600401611016906142eb565b60405180910390fd5b5f73ffffffffffffffffffffffffffffffffffffffff168373ffffffffffffffffffffffffffffffffffffffff160361108d576040517f08c379a000000000000000000000000000000000000000000000000000000000815260040161108490614353565b60405180910390fd5b5f8110156110d0576040517f08c379a00000000000000000000000000000000000000000000000000000000081526004016110c7906143e1565b60405180910390fd5b83600b5f018190555082600b6001015f6101000a81548173ffffffffffffffffffffffffffffffffffffffff021916908373ffffffffffffffffffffffffffffffffffffffff16021790555081600b60010160146101000a81548160ff02191690831515021790555080600b6002018190555050505050565b5f6002905090565b60105f3373ffffffffffffffffffffffffffffffffffffffff1673ffffffffffffffffffffffffffffffffffffffff1681526020019081526020015f205f9054906101000a900460ff16806111d857506111a9611e0a565b73ffffffffffffffffffffffffffffffffffffffff163373ffffffffffffffffffffffffffffffffffffffff16145b611217576040517f08c379a000000000000000000000000000000000000000000000000000000000815260040161120e90614283565b60405180910390fd5b5f73ffffffffffffffffffffffffffffffffffffffff168373ffffffffffffffffffffffffffffffffffffffff1603611285576040517f08c379a000000000000000000000000000000000000000000000000000000000815260040161127c90614449565b60405180910390fd5b60085f8473ffffffffffffffffffffffffffffffffffffffff1673ffffffffffffffffffffffffffffffffffffffff1681526020019081526020015f205f015f9054906101000a900460ff16158015611328575060085f8473ffffffffffffffffffffffffffffffffffffffff1673ffffffffffffffffffffffffffffffffffffffff1681526020019081526020015f205f0160019054906101000a900460ff16155b1561138e57600983908060018154018082558091505060019003905f5260205f20015f9091909190916101000a81548173ffffffffffffffffffffffffffffffffffffffff021916908373ffffffffffffffffffffffffffffffffffffffff1602179055505b6040518060400160405280831515815260200182151581525060085f8573ffffffffffffffffffffffffffffffffffffffff1673ffffffffffffffffffffffffffffffffffffffff1681526020019081526020015f205f820151815f015f6101000a81548160ff0219169083151502179055506020820151815f0160016101000a81548160ff0219169083151502179055509050508273ffffffffffffffffffffffffffffffffffffffff167f855852ede06df792cbe12bbb8b292fd0d251a1dcfea1f072d5793f1930568ebf838360405161146b929190613bad565b60405180910390a2505050565b606060098054806020026020016040519081016040528092919081815260200182805480156114f957602002820191905f5260205f20905b815f9054906101000a900473ffffffffffffffffffffffffffffffffffffffff1673ffffffffffffffffffffffffffffffffffffffff16815260200190600101908083116114b0575b5050505050905090565b6010602052805f5260405f205f915054906101000a900460ff1681565b606061153261152d610ea0565b6126ac565b6040516020016115429190614202565b604051602081830303815290604052905090565b60605f611561611149565b600a61156d9190614058565b60075f8573ffffffffffffffffffffffffffffffffffffffff1673ffffffffffffffffffffffffffffffffffffffff1681526020019081526020015f20546115b59190614494565b90506115c0816126ac565b6040516020016115d09190614202565b604051602081830303815290604052915050919050565b5f6115f1826116f2565b6115fd575f905061161d565b612710600b5f01548361161091906140a2565b61161a9190614494565b90505b919050565b60105f3373ffffffffffffffffffffffffffffffffffffffff1673ffffffffffffffffffffffffffffffffffffffff1681526020019081526020015f205f9054906101000a900460ff16806116a9575061167a611e0a565b73ffffffffffffffffffffffffffffffffffffffff163373ffffffffffffffffffffffffffffffffffffffff16145b6116e8576040517f08c379a00000000000000000000000000000000000000000000000000000000081526004016116df90614283565b60405180910390fd5b6116f0612bf1565b565b5f600b60010160149054906101000a900460ff1680156117175750600b600201548210155b801561172657505f600b5f0154115b9050919050565b60065481565b60105f3373ffffffffffffffffffffffffffffffffffffffff1673ffffffffffffffffffffffffffffffffffffffff1681526020019081526020015f205f9054906101000a900460ff16806117ba575061178b611e0a565b73ffffffffffffffffffffffffffffffffffffffff163373ffffffffffffffffffffffffffffffffffffffff16145b6117f9576040517f08c379a00000000000000000000000000000000000000000000000000000000081526004016117f090614283565b60405180910390fd5b611801612c53565b565b5f600560149054906101000a900460ff16905090565b611821612cb6565b5f73ffffffffffffffffffffffffffffffffffffffff168273ffffffffffffffffffffffffffffffffffffffff160361188f576040517f08c379a000000000000000000000000000000000000000000000000000000000815260040161188690614449565b60405180910390fd5b8060105f8473ffffffffffffffffffffffffffffffffffffffff1673ffffffffffffffffffffffffffffffffffffffff1681526020019081526020015f205f6101000a81548160ff0219169083151502179055508173ffffffffffffffffffffffffffffffffffffffff167f235bc17e7930760029e9f4d860a2a8089976de5b381cf8380fc11c1d88a11133826040516119299190613704565b60405180910390a25050565b61193d6125ec565b5f811161197f576040517f08c379a000000000000000000000000000000000000000000000000000000000815260040161197690613e76565b60405180910390fd5b8061198933611bc6565b10156119ca576040517f08c379a00000000000000000000000000000000000000000000000000000000081526004016119c190613ede565b60405180910390fd5b5f6119d3611149565b600a6119df9190614058565b826119ea91906140a2565b90508060075f3373ffffffffffffffffffffffffffffffffffffffff1673ffffffffffffffffffffffffffffffffffffffff1681526020019081526020015f20541015611a6c576040517f08c379a0000000000000000000000000000000000000000000000000000000008152600401611a639061412d565b60405180910390fd5b8060075f3373ffffffffffffffffffffffffffffffffffffffff1673ffffffffffffffffffffffffffffffffffffffff1681526020019081526020015f205f828254611ab8919061414b565b925050819055508060065f828254611ad0919061414b565b92505081905550611ae1338361262d565b3373ffffffffffffffffffffffffffffffffffffffff167ffd38818f5291bf0bb3a2a48aadc06ba8757865d1dabd804585338aab3009dcb683604051611b279190613757565b60405180910390a27f85e15aee91823036f338b40b55f10eea0356cfb9da506963651ac73e503f47db600654604051611b609190613757565b60405180910390a15050565b600f5481565b60605f611b7d611149565b600a611b899190614058565b600654611b969190614494565b9050611ba1816126ac565b604051602001611bb19190614202565b60405160208183030381529060405291505090565b5f5f5f8373ffffffffffffffffffffffffffffffffffffffff1673ffffffffffffffffffffffffffffffffffffffff1681526020019081526020015f20549050919050565b611c13612cb6565b611c1c5f612d3d565b565b60105f3373ffffffffffffffffffffffffffffffffffffffff1673ffffffffffffffffffffffffffffffffffffffff1681526020019081526020015f205f9054906101000a900460ff1680611ca55750611c76611e0a565b73ffffffffffffffffffffffffffffffffffffffff163373ffffffffffffffffffffffffffffffffffffffff16145b611ce4576040517f08c379a0000000000000000000000000000000000000000000000000000000008152600401611cdb90614283565b60405180910390fd5b5f73ffffffffffffffffffffffffffffffffffffffff168173ffffffffffffffffffffffffffffffffffffffff1603611d52576040517f08c379a0000000000000000000000000000000000000000000000000000000008152600401611d4990614449565b60405180910390fd5b60085f8273ffffffffffffffffffffffffffffffffffffffff1673ffffffffffffffffffffffffffffffffffffffff1681526020019081526020015f205f5f82015f6101000a81549060ff02191690555f820160016101000a81549060ff021916905550508073ffffffffffffffffffffffffffffffffffffffff167f855852ede06df792cbe12bbb8b292fd0d251a1dcfea1f072d5793f1930568ebf5f5f604051611dff929190613bad565b60405180910390a250565b5f60055f9054906101000a900473ffffffffffffffffffffffffffffffffffffffff16905090565b606060048054611e4190613d2c565b80601f0160208091040260200160405190810160405280929190818152602001828054611e6d90613d2c565b8015611eb85780601f10611e8f57610100808354040283529160200191611eb8565b820191905f5260205f20905b815481529060010190602001808311611e9b57829003601f168201915b5050505050905090565b6008602052805f5260405f205f91509050805f015f9054906101000a900460ff1690805f0160019054906101000a900460ff16905082565b600a818051602081018201805184825260208301602085012081835280955050505050505f915054906101000a900460ff1681565b5f611f386125ec565b611f43338484612958565b6001905092915050565b600e5481565b60098181548110611f62575f80fd5b905f5260205f20015f915054906101000a900473ffffffffffffffffffffffffffffffffffffffff1681565b60605f611f9a83611bc6565b9050611fa5816126ac565b604051602001611fb59190614202565b604051602081830303815290604052915050919050565b600b805f015490806001015f9054906101000a900473ffffffffffffffffffffffffffffffffffffffff16908060010160149054906101000a900460ff16908060020154905084565b60105f3373ffffffffffffffffffffffffffffffffffffffff1673ffffffffffffffffffffffffffffffffffffffff1681526020019081526020015f205f9054906101000a900460ff168061209c575061206d611e0a565b73ffffffffffffffffffffffffffffffffffffffff163373ffffffffffffffffffffffffffffffffffffffff16145b6120db576040517f08c379a00000000000000000000000000000000000000000000000000000000081526004016120d290614283565b60405180910390fd5b600182101561211f576040517f08c379a000000000000000000000000000000000000000000000000000000000815260040161211690614534565b60405180910390fd5b818111612161576040517f08c379a0000000000000000000000000000000000000000000000000000000008152600401612158906145c2565b60405180910390fd5b81600f8190555080600e819055505050565b5f60015f8473ffffffffffffffffffffffffffffffffffffffff1673ffffffffffffffffffffffffffffffffffffffff1681526020019081526020015f205f8373ffffffffffffffffffffffffffffffffffffffff1673ffffffffffffffffffffffffffffffffffffffff1681526020019081526020015f2054905092915050565b60085f3373ffffffffffffffffffffffffffffffffffffffff1673ffffffffffffffffffffffffffffffffffffffff1681526020019081526020015f205f015f9054906101000a900460ff16612280576040517f08c379a00000000000000000000000000000000000000000000000000000000081526004016122779061462a565b60405180910390fd5b6122886125ec565b5f73ffffffffffffffffffffffffffffffffffffffff168373ffffffffffffffffffffffffffffffffffffffff16036122f6576040517f08c379a00000000000000000000000000000000000000000000000000000000081526004016122ed90614692565b60405180910390fd5b5f8211612338576040517f08c379a000000000000000000000000000000000000000000000000000000000815260040161232f90613e76565b60405180910390fd5b600a816040516123489190614223565b90815260200160405180910390205f9054906101000a900460ff16156123a3576040517f08c379a000000000000000000000000000000000000000000000000000000000815260040161239a906146fa565b60405180910390fd5b6001600a826040516123b59190614223565b90815260200160405180910390205f6101000a81548160ff0219169083151502179055505f6123e2611149565b600a6123ee9190614058565b836123f991906140a2565b90508060075f8673ffffffffffffffffffffffffffffffffffffffff1673ffffffffffffffffffffffffffffffffffffffff1681526020019081526020015f205f8282546124479190614718565b925050819055508060065f82825461245f9190614718565b925050819055506124708484612e00565b8373ffffffffffffffffffffffffffffffffffffffff167f9d89e36eadf856db0ad9ffb5a569e07f95634dddd9501141ecf04820484ad0dc84846040516124b892919061474b565b60405180910390a28373ffffffffffffffffffffffffffffffffffffffff167fbc20a2c304d0bf6c3583f576486e9b9ce8588edefaf29754907a433adb765c8a8385604051612508929190614779565b60405180910390a27f85e15aee91823036f338b40b55f10eea0356cfb9da506963651ac73e503f47db6006546040516125419190613757565b60405180910390a150505050565b612557612cb6565b5f73ffffffffffffffffffffffffffffffffffffffff168173ffffffffffffffffffffffffffffffffffffffff16036125c7575f6040517f1e4fbdf70000000000000000000000000000000000000000000000000000000081526004016125be9190613b94565b60405180910390fd5b6125d081612d3d565b50565b5f33905090565b6125e78383836001612e7f565b505050565b6125f4611803565b1561262b576040517fd93c066500000000000000000000000000000000000000000000000000000000815260040160405180910390fd5b565b5f73ffffffffffffffffffffffffffffffffffffffff168273ffffffffffffffffffffffffffffffffffffffff160361269d575f6040517f96c6fd1e0000000000000000000000000000000000000000000000000000000081526004016126949190613b94565b60405180910390fd5b6126a8825f8361304e565b5050565b60605f82036126f2576040518060400160405280600181526020017f300000000000000000000000000000000000000000000000000000000000000081525090506128c0565b5f6126fc83613267565b90505f8190505f600360018351612713919061414b565b61271d9190614494565b82516127299190614718565b67ffffffffffffffff81111561274257612741613778565b5b6040519080825280601f01601f1916602001820160405280156127745781602001600182028036833780820191505090505b5090505f5f90505f5f90505f91505b83518210156128b75783828151811061279f5761279e6147a7565b5b602001015160f81c60f81b8382806127b6906147d4565b9350815181106127c9576127c86147a7565b5b60200101907effffffffffffffffffffffffffffffffffffffffffffffffffffffffffffff191690815f1a90535060018451612805919061414b565b8210801561283657505f60036001848751612820919061414b565b61282a919061414b565b612834919061481b565b145b156128aa577f2c00000000000000000000000000000000000000000000000000000000000000838280612868906147d4565b93508151811061287b5761287a6147a7565b5b60200101907effffffffffffffffffffffffffffffffffffffffffffffffffffffffffffff191690815f1a9053505b8180600101925050612783565b82955050505050505b919050565b5f6128d08484612173565b90507fffffffffffffffffffffffffffffffffffffffffffffffffffffffffffffffff8110156129525781811015612943578281836040517ffb8f41b200000000000000000000000000000000000000000000000000000000815260040161293a9392919061484b565b60405180910390fd5b61295184848484035f612e7f565b5b50505050565b5f73ffffffffffffffffffffffffffffffffffffffff168273ffffffffffffffffffffffffffffffffffffffff16036129c6576040517f08c379a00000000000000000000000000000000000000000000000000000000081526004016129bd906148ca565b60405180910390fd5b600f54811015612a0b576040517f08c379a0000000000000000000000000000000000000000000000000000000008152600401612a0290614932565b60405180910390fd5b600e54811115612a50576040517f08c379a0000000000000000000000000000000000000000000000000000000008152600401612a479061499a565b60405180910390fd5b5f5f90505f829050600b60010160149054906101000a900460ff168015612a7c5750600b600201548310155b8015612a8b57505f600b5f0154115b8015612ae757505f73ffffffffffffffffffffffffffffffffffffffff16600b6001015f9054906101000a900473ffffffffffffffffffffffffffffffffffffffff1673ffffffffffffffffffffffffffffffffffffffff1614155b15612bdf57612710600b5f015484612aff91906140a2565b612b099190614494565b91508183612b17919061414b565b90505f8211612b5b576040517f08c379a0000000000000000000000000000000000000000000000000000000008152600401612b5290614a02565b60405180910390fd5b612b8a85600b6001015f9054906101000a900473ffffffffffffffffffffffffffffffffffffffff16846133c0565b8473ffffffffffffffffffffffffffffffffffffffff167f1137290ec9b1f9c41fb72a212c58301a6eda3b23bc43c0e528f6d21216d593b883600b5f0154604051612bd6929190614a20565b60405180910390a25b612bea8585836133c0565b5050505050565b612bf96134b0565b5f600560146101000a81548160ff0219169083151502179055507f5db9ee0a495bf2e6ff9c91a7834c1ba4fdd244a5e8aa4e537bd38aeae4b073aa612c3c6125d3565b604051612c499190613b94565b60405180910390a1565b612c5b6125ec565b6001600560146101000a81548160ff0219169083151502179055507f62e78cea01bee320cd4e420270b5ea74000d11b0c9f74754ebdbfc544b05a258612c9f6125d3565b604051612cac9190613b94565b60405180910390a1565b612cbe6125d3565b73ffffffffffffffffffffffffffffffffffffffff16612cdc611e0a565b73ffffffffffffffffffffffffffffffffffffffff1614612d3b57612cff6125d3565b6040517f118cdaa7000000000000000000000000000000000000000000000000000000008152600401612d329190613b94565b60405180910390fd5b565b5f60055f9054906101000a900473ffffffffffffffffffffffffffffffffffffffff1690508160055f6101000a81548173ffffffffffffffffffffffffffffffffffffffff021916908373ffffffffffffffffffffffffffffffffffffffff1602179055508173ffffffffffffffffffffffffffffffffffffffff168173ffffffffffffffffffffffffffffffffffffffff167f8be0079c531659141344cd1fd0a4f28419497f9722a3daafe3b4186f6b6457e060405160405180910390a35050565b5f73ffffffffffffffffffffffffffffffffffffffff168273ffffffffffffffffffffffffffffffffffffffff1603612e70575f6040517fec442f05000000000000000000000000000000000000000000000000000000008152600401612e679190613b94565b60405180910390fd5b612e7b5f838361304e565b5050565b5f73ffffffffffffffffffffffffffffffffffffffff168473ffffffffffffffffffffffffffffffffffffffff1603612eef575f6040517fe602df05000000000000000000000000000000000000000000000000000000008152600401612ee69190613b94565b60405180910390fd5b5f73ffffffffffffffffffffffffffffffffffffffff168373ffffffffffffffffffffffffffffffffffffffff1603612f5f575f6040517f94280d62000000000000000000000000000000000000000000000000000000008152600401612f569190613b94565b60405180910390fd5b8160015f8673ffffffffffffffffffffffffffffffffffffffff1673ffffffffffffffffffffffffffffffffffffffff1681526020019081526020015f205f8573ffffffffffffffffffffffffffffffffffffffff1673ffffffffffffffffffffffffffffffffffffffff1681526020019081526020015f20819055508015613048578273ffffffffffffffffffffffffffffffffffffffff168473ffffffffffffffffffffffffffffffffffffffff167f8c5be1e5ebec7d5bd14f71427d1e84f3dd0314c0f7b2291e5b200ac8c7c3b9258460405161303f9190613757565b60405180910390a35b50505050565b5f73ffffffffffffffffffffffffffffffffffffffff168373ffffffffffffffffffffffffffffffffffffffff160361309e578060025f8282546130929190614718565b9250508190555061316c565b5f5f5f8573ffffffffffffffffffffffffffffffffffffffff1673ffffffffffffffffffffffffffffffffffffffff1681526020019081526020015f2054905081811015613127578381836040517fe450d38c00000000000000000000000000000000000000000000000000000000815260040161311e9392919061484b565b60405180910390fd5b8181035f5f8673ffffffffffffffffffffffffffffffffffffffff1673ffffffffffffffffffffffffffffffffffffffff1681526020019081526020015f2081905550505b5f73ffffffffffffffffffffffffffffffffffffffff168273ffffffffffffffffffffffffffffffffffffffff16036131b3578060025f82825403925050819055506131fd565b805f5f8473ffffffffffffffffffffffffffffffffffffffff1673ffffffffffffffffffffffffffffffffffffffff1681526020019081526020015f205f82825401925050819055505b8173ffffffffffffffffffffffffffffffffffffffff168373ffffffffffffffffffffffffffffffffffffffff167fddf252ad1be2c89b69c2b068fc378daa952ba7f163c4a11628f55a4df523b3ef8360405161325a9190613757565b60405180910390a3505050565b60605f82036132ad576040518060400160405280600181526020017f300000000000000000000000000000000000000000000000000000000000000081525090506133bb565b5f8290505f5b5f82146132dc5780806132c5906147d4565b915050600a826132d59190614494565b91506132b3565b5f8167ffffffffffffffff8111156132f7576132f6613778565b5b6040519080825280601f01601f1916602001820160405280156133295781602001600182028036833780820191505090505b5090505b5f85146133b457600182613341919061414b565b9150600a85613350919061481b565b603061335c9190614718565b60f81b818381518110613372576133716147a7565b5b60200101907effffffffffffffffffffffffffffffffffffffffffffffffffffffffffffff191690815f1a905350600a856133ad9190614494565b945061332d565b8093505050505b919050565b5f73ffffffffffffffffffffffffffffffffffffffff168373ffffffffffffffffffffffffffffffffffffffff1603613430575f6040517f96c6fd1e0000000000000000000000000000000000000000000000000000000081526004016134279190613b94565b60405180910390fd5b5f73ffffffffffffffffffffffffffffffffffffffff168273ffffffffffffffffffffffffffffffffffffffff16036134a0575f6040517fec442f050000000000000000000000000000000000000000000000000000000081526004016134979190613b94565b60405180910390fd5b6134ab83838361304e565b505050565b6134b8611803565b6134ee576040517f8dfc202b00000000000000000000000000000000000000000000000000000000815260040160405180910390fd5b565b5f82825260208201905092915050565b7f494e52543a2064697265637420455448207472616e7366657273206e6f7420615f8201527f6c6c6f7765640000000000000000000000000000000000000000000000000000602082015250565b5f61355a6026836134f0565b915061356582613500565b604082019050919050565b5f6020820190508181035f8301526135878161354e565b9050919050565b5f81519050919050565b8281835e5f83830152505050565b5f601f19601f8301169050919050565b5f6135c08261358e565b6135ca81856134f0565b93506135da818560208601613598565b6135e3816135a6565b840191505092915050565b5f6020820190508181035f83015261360681846135b6565b905092915050565b5f604051905090565b5f5ffd5b5f5ffd5b5f73ffffffffffffffffffffffffffffffffffffffff82169050919050565b5f6136488261361f565b9050919050565b6136588161363e565b8114613662575f5ffd5b50565b5f813590506136738161364f565b92915050565b5f819050919050565b61368b81613679565b8114613695575f5ffd5b50565b5f813590506136a681613682565b92915050565b5f5f604083850312156136c2576136c1613617565b5b5f6136cf85828601613665565b92505060206136e085828601613698565b9150509250929050565b5f8115159050919050565b6136fe816136ea565b82525050565b5f6020820190506137175f8301846136f5565b92915050565b5f6020828403121561373257613731613617565b5b5f61373f84828501613665565b91505092915050565b61375181613679565b82525050565b5f60208201905061376a5f830184613748565b92915050565b5f5ffd5b5f5ffd5b7f4e487b71000000000000000000000000000000000000000000000000000000005f52604160045260245ffd5b6137ae826135a6565b810181811067ffffffffffffffff821117156137cd576137cc613778565b5b80604052505050565b5f6137df61360e565b90506137eb82826137a5565b919050565b5f67ffffffffffffffff82111561380a57613809613778565b5b613813826135a6565b9050602081019050919050565b828183375f83830152505050565b5f61384061383b846137f0565b6137d6565b90508281526020810184848401111561385c5761385b613774565b5b613867848285613820565b509392505050565b5f82601f83011261388357613882613770565b5b813561389384826020860161382e565b91505092915050565b5f602082840312156138b1576138b0613617565b5b5f82013567ffffffffffffffff8111156138ce576138cd61361b565b5b6138da8482850161386f565b91505092915050565b5f5f5f606084860312156138fa576138f9613617565b5b5f61390786828701613665565b935050602061391886828701613665565b925050604061392986828701613698565b9150509250925092565b61393c816136ea565b8114613946575f5ffd5b50565b5f8135905061395781613933565b92915050565b5f5f5f5f6080858703121561397557613974613617565b5b5f61398287828801613698565b945050602061399387828801613665565b93505060406139a487828801613949565b92505060606139b587828801613698565b91505092959194509250565b5f60ff82169050919050565b6139d6816139c1565b82525050565b5f6020820190506139ef5f8301846139cd565b92915050565b5f5f5f60608486031215613a0c57613a0b613617565b5b5f613a1986828701613665565b9350506020613a2a86828701613949565b9250506040613a3b86828701613949565b9150509250925092565b5f81519050919050565b5f82825260208201905092915050565b5f819050602082019050919050565b613a778161363e565b82525050565b5f613a888383613a6e565b60208301905092915050565b5f602082019050919050565b5f613aaa82613a45565b613ab48185613a4f565b9350613abf83613a5f565b805f5b83811015613aef578151613ad68882613a7d565b9750613ae183613a94565b925050600181019050613ac2565b5085935050505092915050565b5f6020820190508181035f830152613b148184613aa0565b905092915050565b5f60208284031215613b3157613b30613617565b5b5f613b3e84828501613698565b91505092915050565b5f5f60408385031215613b5d57613b5c613617565b5b5f613b6a85828601613665565b9250506020613b7b85828601613949565b9150509250929050565b613b8e8161363e565b82525050565b5f602082019050613ba75f830184613b85565b92915050565b5f604082019050613bc05f8301856136f5565b613bcd60208301846136f5565b9392505050565b5f608082019050613be75f830187613748565b613bf46020830186613b85565b613c0160408301856136f5565b613c0e6060830184613748565b95945050505050565b5f5f60408385031215613c2d57613c2c613617565b5b5f613c3a85828601613698565b9250506020613c4b85828601613698565b9150509250929050565b5f5f60408385031215613c6b57613c6a613617565b5b5f613c7885828601613665565b9250506020613c8985828601613665565b9150509250929050565b5f5f5f60608486031215613caa57613ca9613617565b5b5f613cb786828701613665565b9350506020613cc886828701613698565b925050604084013567ffffffffffffffff811115613ce957613ce861361b565b5b613cf58682870161386f565b9150509250925092565b7f4e487b71000000000000000000000000000000000000000000000000000000005f52602260045260245ffd5b5f6002820490506001821680613d4357607f821691505b602082108103613d5657613d55613cff565b5b50919050565b7f4e6f742077686974656c697374656420666f72206275726e696e6700000000005f82015250565b5f613d90601b836134f0565b9150613d9b82613d5c565b602082019050919050565b5f6020820190508181035f830152613dbd81613d84565b9050919050565b7f494e52543a206275726e2066726f6d207a65726f2061646472657373000000005f82015250565b5f613df8601c836134f0565b9150613e0382613dc4565b602082019050919050565b5f6020820190508181035f830152613e2581613dec565b9050919050565b7f494e52543a20616d6f756e74206d75737420626520706f7369746976650000005f82015250565b5f613e60601d836134f0565b9150613e6b82613e2c565b602082019050919050565b5f6020820190508181035f830152613e8d81613e54565b9050919050565b7f494e52543a20696e73756666696369656e742062616c616e63650000000000005f82015250565b5f613ec8601a836134f0565b9150613ed382613e94565b602082019050919050565b5f6020820190508181035f830152613ef581613ebc565b9050919050565b7f4e487b71000000000000000000000000000000000000000000000000000000005f52601160045260245ffd5b5f8160011c9050919050565b5f5f8291508390505b6001851115613f7e57808604811115613f5a57613f59613efc565b5b6001851615613f695780820291505b8081029050613f7785613f29565b9450613f3e565b94509492505050565b5f82613f965760019050614051565b81613fa3575f9050614051565b8160018114613fb95760028114613fc357613ff2565b6001915050614051565b60ff841115613fd557613fd4613efc565b5b8360020a915084821115613fec57613feb613efc565b5b50614051565b5060208310610133831016604e8410600b84101617156140275782820a90508381111561402257614021613efc565b5b614051565b6140348484846001613f35565b9250905081840481111561404b5761404a613efc565b5b81810290505b9392505050565b5f61406282613679565b915061406d836139c1565b925061409a7fffffffffffffffffffffffffffffffffffffffffffffffffffffffffffffffff8484613f87565b905092915050565b5f6140ac82613679565b91506140b783613679565b92508282026140c581613679565b915082820484148315176140dc576140db613efc565b5b5092915050565b7f494e52543a20696e73756666696369656e7420726573657276650000000000005f82015250565b5f614117601a836134f0565b9150614122826140e3565b602082019050919050565b5f6020820190508181035f8301526141448161410b565b9050919050565b5f61415582613679565b915061416083613679565b925082820390508181111561417857614177613efc565b5b92915050565b5f81905092915050565b5f6141928261358e565b61419c818561417e565b93506141ac818560208601613598565b80840191505092915050565b7f20494e52000000000000000000000000000000000000000000000000000000005f82015250565b5f6141ec60048361417e565b91506141f7826141b8565b600482019050919050565b5f61420d8284614188565b9150614218826141e0565b915081905092915050565b5f61422e8284614188565b915081905092915050565b7f4f6e6c792061646d696e2063616e2063616c6c000000000000000000000000005f82015250565b5f61426d6013836134f0565b915061427882614239565b602082019050919050565b5f6020820190508181035f83015261429a81614261565b9050919050565b7f494e52543a20746178207261746520746f6f206869676820286d6178203525295f82015250565b5f6142d56020836134f0565b91506142e0826142a1565b602082019050919050565b5f6020820190508181035f830152614302816142c9565b9050919050565b7f494e52543a20696e76616c6964207461782077616c6c657400000000000000005f82015250565b5f61433d6018836134f0565b915061434882614309565b602082019050919050565b5f6020820190508181035f83015261436a81614331565b9050919050565b7f494e52543a207468726573686f6c642063616e6e6f74206265206e65676174695f8201527f7665000000000000000000000000000000000000000000000000000000000000602082015250565b5f6143cb6022836134f0565b91506143d682614371565b604082019050919050565b5f6020820190508181035f8301526143f8816143bf565b9050919050565b7f494e52543a20696e76616c6964206164647265737300000000000000000000005f82015250565b5f6144336015836134f0565b915061443e826143ff565b602082019050919050565b5f6020820190508181035f83015261446081614427565b9050919050565b7f4e487b71000000000000000000000000000000000000000000000000000000005f52601260045260245ffd5b5f61449e82613679565b91506144a983613679565b9250826144b9576144b8614467565b5b828204905092915050565b7f494e52543a206d696e696d756d206d757374206265206174206c6561737420315f8201527f20746f6b656e20283120494e5229000000000000000000000000000000000000602082015250565b5f61451e602e836134f0565b9150614529826144c4565b604082019050919050565b5f6020820190508181035f83015261454b81614512565b9050919050565b7f494e52543a206d6178696d756d206d75737420626520677265617465722074685f8201527f616e206d696e696d756d00000000000000000000000000000000000000000000602082015250565b5f6145ac602a836134f0565b91506145b782614552565b604082019050919050565b5f6020820190508181035f8301526145d9816145a0565b9050919050565b7f4e6f742077686974656c697374656420666f72206d696e74696e6700000000005f82015250565b5f614614601b836134f0565b915061461f826145e0565b602082019050919050565b5f6020820190508181035f83015261464181614608565b9050919050565b7f494e52543a206d696e7420746f207a65726f20616464726573730000000000005f82015250565b5f61467c601a836134f0565b915061468782614648565b602082019050919050565b5f6020820190508181035f8301526146a981614670565b9050919050565b7f494e52543a207061796d656e7420616c72656164792070726f636573736564005f82015250565b5f6146e4601f836134f0565b91506146ef826146b0565b602082019050919050565b5f6020820190508181035f830152614711816146d8565b9050919050565b5f61472282613679565b915061472d83613679565b925082820190508082111561474557614744613efc565b5b92915050565b5f60408201905061475e5f830185613748565b818103602083015261477081846135b6565b90509392505050565b5f6040820190508181035f83015261479181856135b6565b90506147a06020830184613748565b9392505050565b7f4e487b71000000000000000000000000000000000000000000000000000000005f52603260045260245ffd5b5f6147de82613679565b91507fffffffffffffffffffffffffffffffffffffffffffffffffffffffffffffffff82036148105761480f613efc565b5b600182019050919050565b5f61482582613679565b915061483083613679565b9250826148405761483f614467565b5b828206905092915050565b5f60608201905061485e5f830186613b85565b61486b6020830185613748565b6148786040830184613748565b949350505050565b7f494e52543a207472616e7366657220746f207a65726f206164647265737300005f82015250565b5f6148b4601e836134f0565b91506148bf82614880565b602082019050919050565b5f6020820190508181035f8301526148e1816148a8565b9050919050565b7f494e52543a2062656c6f77206d696e696d756d207472616e73666572000000005f82015250565b5f61491c601c836134f0565b9150614927826148e8565b602082019050919050565b5f6020820190508181035f83015261494981614910565b9050919050565b7f494e52543a2065786365656473206d6178696d756d207472616e7366657200005f82015250565b5f614984601e836134f0565b915061498f82614950565b602082019050919050565b5f6020820190508181035f8301526149b181614978565b9050919050565b7f494e52543a207461782063616c63756c6174696f6e206572726f7200000000005f82015250565b5f6149ec601b836134f0565b91506149f7826149b8565b602082019050919050565b5f6020820190508181035f830152614a19816149e0565b9050919050565b5f604082019050614a335f830185613748565b614a406020830184613748565b939250505056fea26469706673582212207a3c54b20248f1254a8e976924d0f86b8c3f046562302d17a14bcad4689c8c7064736f6c634300081e0033","linkReferences":{}},"methodIdentifiers":{"admins(address)":"429b62e5","allowance(address,address)":"dd62ed3e","approve(address,uint256)":"095ea7b3","balanceOf(address)":"70a08231","burnMyTokens(uint256)":"6764765d","burnTokens(address,uint256)":"0d1118ce","calculateTax(uint256)":"483a9310","decimals()":"313ce567","emergencyPause()":"51858e27","emergencyUnpause()":"4a4e3bd5","getAllWhitelisted()":"4245b7af","getBalanceInINR(address)":"c46f3f46","getTaxThresholdInINR()":"12f05973","getTotalReserveInINR()":"6d28b75a","getTotalSupplyInINR()":"43aeae45","getUserReserveInINR(address)":"47dfca28","isPaymentProcessed(string)":"149f2e88","maxTransferAmount()":"a9e75723","minTransferAmount()":"68841431","mintTokens(address,uint256,string)":"e67524a3","name()":"06fdde03","owner()":"8da5cb5b","paused()":"5c975abb","processedPayments(string)":"9b931abf","removeFromWhitelist(address)":"8ab1d681","renounceOwnership()":"715018a6","symbol()":"95d89b41","taxConfig()":"c57da029","totalReserve()":"4c68df67","totalSupply()":"18160ddd","transfer(address,uint256)":"a9059cbb","transferFrom(address,address,uint256)":"23b872dd","transferOwnership(address)":"f2fde38b","updateAdmin(address,bool)":"670a6fd9","updateTaxConfig(uint256,address,bool,uint256)":"27e2ced1","updateTransferLimits(uint256,uint256)":"cfbc3cfd","updateWhitelist(address,bool,bool)":"40dfb1dc","userReserves(address)":"0d08e181","verifyPeg()":"23633468","whitelist(address)":"9b19251a","whitelistedAddresses(uint256)":"ba4e5c49","wouldBeTaxed(uint256)":"4b85ca37"},"id":28}